:100000000C28D82EE02EE72EFE00030EF400040884
:10001000F5000A08F600A42E0D282030F001F101A9
:10002000F20183120313EF01831384005630E22799
:10003000A0308400B630E22783011A2D8316A00178
:10004000A101A201A301F01F28287213F21172115D
:10005000F21D2D28F2137213F112F21FF11AF01390
:10006000F01F8528711C73281E308312BB0A3B02C7
:10007000031C6528BB01EF1C44280630BA0A3A026B
:10008000031C6528EF106528BA0B652871106528D8
:100090000230F7003C30F801F80ACA268A2870308E
:1000A0006C21CA268A286621CA260230F70003304E
:1000B000F801F80ACA268A280330D90058304C269D
:1000C0008A2807306C21CA268A283A08FF3E031C7A
:1000D0008A2884000530040203188A2807308A0021
:1000E000F1300407820082214C266621CA2677213E
:1000F000CA26F11C7E287121CA268A280230F70000
:100100000430F801F80ACA268A2871148312EF1401
:10011000BB01BA01F11FA72832308312360203183F
:1001200097280230F7002030F801F80ACA26653017
:100130008312B60A3602031C9F28B601BD0A721844
:10014000BD0105303D02031CAA28F113AA28831221
:10015000BD01B601721DC8283230F112F213370208
:100160000318B8280230F7001030F801F80ACA2640
:1001700065308312B70A3702031CC028B701BE0AD4
:100180007019BE0105303E02031CCA287211CA282C
:10019000BE01B701F21DD828721ED12870306C2123
:1001A000CA267C21CA2602308312D90043084C2675
:1001B000F21F10296621CA267721CA26F21E0D29B0
:1001C00014308312B80A3802031C0829B8016F1CC6
:1001D000F3280330C10A4102031CF7280230C10092
:1001E0006F10BF0AF728C10BF728C1016F14033045
:1001F0003F020318F21241080319C001410B022902
:100200000230C00002304106031D08290330C0003F
:100210004008D90054084C26382982214C26382918
:10022000F11E30296621CA267721CA26643083123E
:100230003802031821290330D90054084C267121B3
:10024000CA26C9308312B80A3802031C2929B8010A
:10025000BC0A05303C020318F112711F38293729F6
:10026000F21683126F14C001C101BF01B801BC01B5
:10027000721F5329FA308312B90A39020318721314
:1002800007306C21CA2683124E080330D9000319A7
:100290004E294E084C267721CA2655294F084C2650
:1002A0007C21CA2655298312B9018316200883129E
:1002B000A000831621088312A1008316220883124E
:1002C000A200831623088312A30008000830F70158
:1002D000F70AF801F80A0800F701F70AF801F80A26
:1002E00008000230F7000830F801F80A0800023070
:1002F000F700F801F80A08000230F7000130F801B1
:10030000F80A080003308312D900540808005F2A55
:10031000F21371137210F21085118617C918F01DAF
:100320000800721A0800F011B201B101B001B30166
:10033000711E9C29F116A029B501B50A85158613F1
:10034000CF01CE0172138316AE01AF0108008515EF
:1003500086136430B40A3402031CD329B401831613
:10036000A80A0319A90A83125008D800D90159080C
:1003700083162902031DC0298312580883162802F8
:10038000031CC829A801A90183125408031DD40322
:100390003C308312CF0A4F02031CD3293C30CF01DB
:1003A0004E02031CCE0A54080319D9297113F217FF
:1003B000E229711BE0290330D3003230D2007117DB
:1003C000F213F11600302502FA3003192402031843
:1003D000EB29B30AEC29B301C9303302031CF2291B
:1003E0007116D401003083162F02273003192E0214
:1003F0008312031CFD29B20AFE29B201FB3032022E
:10040000031C082A0330F1177214D3003230D200D3
:10041000003083162D023B3003192C028312031C7B
:10042000132AB10A142AB101C93031020318F21497
:1004300002304727003A0319402A1E088316A600F7
:10044000F030A701A60EA70EA70526080F39A704AE
:10045000F030A6051E0E0F39A6070318A70A0310D1
:10046000A60DA70D270883122902031D3B2A831618
:1004700026088312280203183F2AB00A402AB00136
:1004800030080319482A0A30B501D301D30AD20033
:10049000C91C4C2AF019512AF21C711A512A721ED9
:1004A0000800F011B501F112721E582A0330682AB3
:1004B00019307217D301D2000800B50108003508C1
:1004C000003A03198829013A0319A7295D2A08006F
:1004D000D3001930D2000800F01FB82A01305E02A4
:1004E000133003195D020318772AE201802A0130D4
:1004F0005E025F3003195D02031C822A6030E20055
:10050000E3019B2A5D08ED3E25230330D600D70189
:100510006308E0006208DF000310DF0DE00D031048
:10052000DF0DE00D5F08D8006008D9007A26570873
:10053000E3005608E2000D230318A32A6330550296
:100540000318A32AD50A550854020318B62A5408DA
:100550005502E100053061020318B42AF130F700BA
:100560006108D4275A3EB72A0F30B72AF030D1009D
:10057000350803190A2B01305E020B3003195D02A6
:100580000318C42AE201CD2A01305E024E3003195D
:100590005D02031CCF2A6330E200E301EA2A5D0812
:1005A000F53E252300306302213003196202031C4B
:1005B000EA2A5E08E3005D08E200A8300310E20DBD
:1005C000E30DE2070318E30AFD30E3072130E207F9
:1005D0000318E30A0D230318F22A633055020318A7
:1005E000F22AD50A5408550203180A2B550854025A
:1005F000E10055080319072B053061020318072B8A
:10060000F130F7006108D4274B3ED00008000830D5
:10061000D0000800D230D00008005508DF00E0010B
:1006200060086302031D162B5F0862025508031859
:100630001C2B031DD5035508DF00E0016308600291
:10064000031D080062085F020800E2005E0803184C
:10065000013EFE3EE30008007F2B0F30B623701EE4
:10066000080070122708A9002608A800C501C50ABD
:1006700008000230B623701E08008B230330DD0112
:10068000DC01DB00E830DA001926AD2365256308BC
:100690008316AB00831262088316AA002B08AD00F4
:1006A0002A08AC002B082F02031D582B2A082E0203
:1006B00003185E2BAE0A0319AF0A682B2E082F040D
:1006C0000319682B0130AE020030031CAF03AF02E8
:1006D00002308312C50008000130B623701E0800E6
:1006E0008B236430DA00DB01DC01DD011926AD2348
:1006F00065256308A5006208A400C5010800450837
:1007000084000330040203187D2B07308A00FB307D
:10071000040782000800701226088316B6008312B0
:1007200027088316B700B801B90183122808E20030
:100730002908E300E401E501831639088312D90092
:10074000831638088312D800831637088312D7001F
:10075000831636088312D60008005908E9005808A5
:10076000E8005708E7005608E6000800DA004727C7
:10077000003A031908001E08DB00F030DC01DB0E34
:10078000DC0EDC055B080F39DC04F030DB0583167A
:100790001E0E0F398312DB070318DC0A4608031DFF
:1007A000D92BFF308316B401B501B200B300B001FC
:1007B000B10183125C0883163502031DE32B8312FB
:1007C0005B08831634020318ED2B83125C08831632
:1007D000B50083125B088316B400330883125C02F1
:1007E000031DF62B8316320883125B020318FF2BBE
:1007F0005C088316B30083125B088316B200831271
:100800005B0838245C088316B1070A308312C60AD5
:100810004602031C08008316320834078312D800EE
:10082000831633080318330A35078312D900D80911
:10083000D909D80A0319D90A58083824590883163F
:10084000B10731088312D900831630088312D8000B
:100850000310D90CD80C0310D90CD80C0310D90CE8
:10086000D80C5808A6005908A700C6017016080041
:100870008316B0070318B10A83120800F30086102C
:1008800087110711871007100910851286160616A2
:1008900086150615A72C83168616951606161516A8
:1008A0000000000083120313061E582CF014592C6C
:1008B000F010861E5D2C70145E2C7010000000007D
:1008C00083160313861295160612151608002018B3
:1008D0008614A018871520190715A0198714201A47
:1008E0000714A01A0914201B851686120800211867
:1008F0008614A118871521190715A1198714211A23
:100900000714A11A0914211B8516061208002218C3
:100910008614A218871522190715A2198714221AFE
:100920000714A21A0914221B851686110800231821
:100930008614A318871523190715A3198714231ADA
:100940000714A31A0914231B85160611080073083F
:100950008400053004020318080007308A00F630CE
:10096000040782000800102DF013491C0800153000
:10097000AD0A2D02031C08000230AF01AF0A831636
:10098000A401A5018312D3000A30D200F11208009D
:100990006430F01772127112AE0A2E02031CF42C8E
:1009A000AE018316A40A0319A50A83125108F700A1
:1009B000F801780883162502031DE02C770824022D
:1009C000031CE92C6330A401A50183125402031C0B
:1009D000D40A003083122502FB30031924020318C5
:1009E000F32C0512F42C0516633054020318FA2C6C
:1009F000F114FB2CF110491CFF2CAD01002DAD0AA8
:100A00000A302D02031C0800AF0105160A308316B8
:100A1000A801A9018312D301D2000800AF01080088
:100A200083122F08003A0319B42C013A0319C82C79
:100A30000E2D0800AA2779148312CC01701B791C93
:100A40004A2D70136400FF3083120313A000A1002D
:100A5000A200A3002C233230D301D30AD200932763
:100A60006530CC0A4C0203187910013025020B3096
:100A70000319240203183E2DD4014A2D013025020A
:100A80005F3003192402031C472D6330492D2408CD
:100A9000F53ED400701B79181E2D70136400622778
:100AA0008721B324F01B552DE32593276530CD0A0C
:100AB0004D02031C612DCD012508DE002408DD0058
:100AC0006C221E202C23AD251E2DEA01EB01EC012A
:100AD000ED0165086404630462040319A42DEE01AA
:100AE000EE0AE51B792D0310E20DE30DE40DE50D93
:100AF000702D0310EA0DEB0DEC0DED0D650869028C
:100B0000031D8C2D64086802031D8C2D6308670289
:100B1000031D8C2D62086602031C9E2D6208E602EE
:100B20006308031C630FE7026408031C640FE802F8
:100B30006508031C650FE9026A140310E50CE40C58
:100B4000E30CE20CEE0B792D6D08E5006C08E40077
:100B50006B08E3006A08E2000800F21FF01BB92DE1
:100B6000721FF11AB92D721DF11BB92D4908031915
:100B7000BA2DC401F01EBE2DF012C40AC8304402C2
:100B8000031C0800C40164008B01831603138C014D
:100B90008D0183128C019F010317930103139701A9
:100BA0009D01EF268312031785018B158B133030BF
:100BB00083160313960001308F000B108312060872
:100BC00063000000AA2F102EF211AB01C91CF32DF7
:100BD000721EEE2D03307215F215EF2D0430C30096
:100BE0007015AC01AC0AC91C0E2E6430AB0A2B0286
:100BF000031C0800AB01430803190800F215C303E6
:100C00004308031D08001030F206721E092E7215EB
:100C10000A2E72110330F211AB01682AAC010800F0
:100C20002C08003A0319E42D013A0319F32D0E2E76
:100C30000800DE01DF01E001E101561C332E5A08F5
:100C4000DE075B0803110318013E031DDF075C0884
:100C500003110318013E031DE0075D08031103188B
:100C6000013E031DE1070310DA0DDB0DDC0DDD0D88
:100C70000310D90CD80CD70CD60C590858045704BB
:100C80005604031D1D2E6108D9006008D8005F08B6
:100C9000D7005E08D6000800DA0064305A02031C50
:100CA000532E6330DA00EF156F155908031D5A2EC5
:100CB000EF116F11EF19591C672E0A30F7005A080F
:100CC0002C27013E84007C278316A000692E831602
:100CD000A00183126F19D91C772E0A30F7005A0829
:100CE0001027013E84007C278316A100080083168C
:100CF000A1010800DB01DC015608570403199F2EEF
:100D0000DA01DA0AD71B882E0310D60DD70D812EF3
:100D10000310DB0DDC0D57085902031D912E5608F8
:100D20005802031C9B2E5608D8025708031CD903EF
:100D3000D9025B140310D70CD60CDA0B882E5C0892
:100D4000D7005B08D6000800831203138C18121D0D
:100D5000C12E8C10F11DAE2E061FB02E0613B12E23
:100D600006170A30CB0A4B02031CB82ECB01EA2728
:100D700032308312CA0A4A02031CC12ECA017017FC
:100D8000F01676088A0075088400740E8300FE0E43
:100D90007E0E09008312D600770884000330040217
:100DA0000318080000308A000130040782000800A0
:100DB00078080319080056088316A2048312EB2E44
:100DC00078080319080056088316A204080078085A
:100DD00003190800EB2E56088316A3040800831697
:100DE0008113870186018501FF26851405150514E9
:100DF0000512831606161516861695160800890123
:100E0000FF3003178E000313950003178F00831222
:100E10009A0080300313850086008701890108004D
:100E2000D6000830D700D8015608F8000730031064
:100E3000F80CFF3E0310031D182F580D7804D8003E
:100E40000310D60D77085802031C282F7708D80204
:100E5000D70B142F58080800D600D80177080319BB
:100E6000452FD701D70AF71B382F0310F70D322F64
:100E70000310D80D77085602031C422F7708D602BC
:100E800058140310F70CD70B382F58080800D60059
:100E900083169F0183125608F70001300310F70DE7
:100EA000FF3E0310031D4F2F770D41389F000000B8
:100EB0000000831203139F14D7019F1C0134D70B2A
:100EC0005D2F003483120313C801F01C692F4810F2
:100ED0006A2F4814701C6E2FC8106F2FC814470853
:100EE0004806031D792F4808C900C918792FF01545
:100EF00070114808C700080007308A000408840AF7
:100F0000820700343F3406345B344F3466346D342A
:100F10007D3407347F346F347134353438343734AA
:100F200079344034003453080319A52F711D9A2FCA
:100F30007111F115AA0A2A08520203180800083094
:100F4000AA01F106F11DD3030800AA01F1117210E4
:100F50007115080000006400FE27C02701308312CD
:100F600085006130831603138F00C0308B00023080
:100F70008C00043083129200C8308316920008005F
:100F8000831603138113850186018701FF2605104F
:100F900005168316051503170E110815031385147E
:100FA00003178E1088140800D700D6017708571849
:100FB000D6070310F70D0310D70C5708031DD62FC3
:100FC0005608080064008001840A040603190034EE
:100FD0000406E32F0530C20A42020318C201420888
:100FE0003E2C48284F2853285C2861284B2C672C1E
:100FF000772C872C972C2D2B392B6C2B0800FFFF7F
:00000001FF
